:020000040000FA
:100000000A128A11E72FFF1B0D2883137F1883170D
:100010000008840A0319FF0A080000308A00040857
:10002000840A82070034013400340A340034643412
:100030000034E834033410342734503472346934D3
:100040006D3465347234203464346934673469340F
:1000500074346F343A3420342534693400345334E2
:100060006534673475346E3464346F3420346434EA
:1000700069346734693474346F3420342534693416
:10008000003454346534723463346534723420344B
:10009000443469346734693474346F34203425341B
:1000A00069340034433475346134723474346F34D9
:1000B0002034643469346734693474346F342034E0
:1000C00025346934003449346E34743465346E3404
:1000D0007434653420346434653420346E347534BB
:1000E000653476346F34003449346E346734723496
:1000F000653473346534203463346C34613476345D
:100100006534003445346C3465346334743472348B
:100110006F346E3469346334613400345034723473
:100120006534733469346F346E3465342034233469
:10013000003443346F346E34743472346134733445
:100140006534F1346134003449346E3463346F34CF
:10015000723472346534633474346134003442343C
:100160006C346F34713475346534613464346134A3
:100170000034433465347234723461346434753419
:100180007234613400344F34743472346134203446
:10019000763465347A3400344134623469346534F9
:1001A0007234743461340034B2340434831203136F
:1001B00007140800F30083120313081173080A12CE
:1001C0008A15B9270A128A1183120313881506307B
:1001D000F2003030F100F10BEB28F20BEB280000BD
:1001E0008312031388110800F301F401831203132F
:1001F00007150630F2001330F100AD30F000F00BBF
:10020000FF28F10BFF28F20BFF28062983120313A6
:1002100007110630F2001330F100AD30F000F00BA2
:100220000F29F10B0F29F20B0F2916290130F307C3
:100230000318F40A0030F4077408803AFF00803095
:100240007F02031D252905307302031C2829292953
:10025000F6280800F40074080F39F1007108F20064
:100260007408F039F1007108F300831203130815C4
:100270007308F10004300310F10CFF3E031D3B290D
:1002800071080A128A15B9270A128A1183120313F8
:1002900088150D30F100F10B4B29831203138811DF
:1002A00072080A128A15B9270A128A1183120313D7
:1002B00088150D30F100F10B5B29831203138811AF
:1002C0000800780879040319662967299629FD0131
:1002D000FD0A752901300310F80DF90DFF3E031DCD
:1002E0006B290130FC007C08FD07F91F782979296A
:1002F0006A2979087B02031D7F2978087A02031C8A
:100300008229832989297808FA027908031CFB03CA
:10031000FB0201300310F90CF80CFF3E031D8A2983
:100320000130FD02031D9529962979297B08F900E2
:100330007A08F8000800FA01FB01C0297A0875075D
:10034000F8007608F7000318F70AFA1FA829F70340
:100350007708F900790883120313FF0078088400F6
:100360000A128A1103200A128A110A128A112A21FA
:100370000A128A110130FA070318FB0A0030FB0742
:100380007A087507F8007608F7000318F70AFA1FCD
:10039000CA29F7037708F900790883120313FF00CD
:1003A000780884000A128A1103200A128A11003A7E
:1003B000031DDB29DC299E290800F501F6017008E0
:1003C00071040319E429E5291C2AF701F70AF32926
:1003D00001300310F00DF10DFF3E031DE92901303E
:1003E000F4007408F707F11FF629F729E82901300E
:1003F0000310F50DF60DFF3E031DF8297108730279
:10040000031D042A70087202031C072A082A0F2AF7
:100410007008F2027108031CF303F3027514013033
:100420000310F10CF00CFF3E031D102A0130F702FF
:10043000031D1B2A1C2AF7297608F1007508F00015
:100440000800F7007703031D262A272A4A2A740882
:100450007F3EF5007508FA007A08F50004300310B5
:10046000F50CFF3E031D2F2A7508F6007608F800EC
:100470007A080F39F5007508F90078080A128A1110
:10048000DA200A128A1179080A128A11DA200A126D
:100490008A11722A02307706031D4F2A502A722AC7
:1004A0007408BF3EF5007508FA007A08F5000430BC
:1004B0000310F50CFF3E031D582A7508F600760858
:1004C000F8007A080F39F5007508F90078080A1263
:1004D0008A11DA200A128A1179080A128A11DA209E
:1004E0000A128A11080000300A128A15B9270A1266
:1004F0008A111A30F500F830F400F40B7D2AF50B60
:100500007D2A000003300A128A11DA200A128A11A9
:100510000730F5007D30F400F40B8C2AF50B8C2AA3
:1005200003300A128A11DA200A128A110F30F500FC
:100530004730F400F40B9A2AF50B9A2A9F2A0330CD
:100540000A128A11DA200A128A1102300A128A115A
:10055000DA200A128A1102300A128A11DA200A12EB
:100560008A1108300A128A11DA200A128A11003020
:100570000A128A11DA200A128A110C300A128A1120
:10058000DA200A128A1100300A128A11DA200A12BD
:100590008A1106300A128A11DA200A128A1108001A
:1005A000643083120313C5000030C600013086009A
:1005B0000D30F100FB30F000F00BDC2AF10BDC2AEF
:1005C000E12A83120313061EE62AE72AEC2A0130E9
:1005D000C5000030C600FD2A861EEF2AF02AF52A43
:1005E0000230C5000030C600FD2A061FF82AF92A8D
:1005F000FD2A0330C5000030C600023086000D30F1
:10060000F100FB30F000F00B032BF10B032B082B58
:1006100083120313061E0D2B0E2B132B0430C50063
:100620000030C600242B861E162B172B1C2B0530E2
:10063000C5000030C600242B061F1F2B202B242BA7
:100640000630C5000030C600043086000D30F100D1
:10065000FB30F000F00B2A2BF10B2A2B2F2B8312EF
:100660000313061E342B352B3A2B0730C500003000
:10067000C6004B2B861E3D2B3E2B432B0830C5005E
:100680000030C6004B2B061F462B472B4B2B093047
:10069000C5000030C600083086000D30F100FB3088
:1006A000F000F00B512BF10B512B562B831203133F
:1006B000061E5B2B5C2B612B2A30C5000030C60068
:1006C000702B861E642B652B682BC501C601702B11
:1006D000061F6B2B6C2B702B2330C5000030C6001F
:1006E0004508080083120313AB002130A300230840
:1006F000A600432C25302C0603197F2B802B8C2B36
:100700002C08A3002B0884002308831380000130E9
:10071000A3002308AB07432CA7010130A007FF303B
:10072000200784000A128A110D200A128A11AC00D7
:10073000A300A4012408003A03199F2B432C23088B
:10074000003A0319552C643A0319AA2B0D3A0319E0
:10075000AA2B432C2608840083130008A900840ACE
:100760000008AA000230A3002308A607AA1FB92B7D
:10077000BA2BC32B0330A3002308A704A909AA0995
:10078000A90A0319AA0AAC01AC0A2C08A300230782
:10079000013E84000A128A110D200A128A11A40057
:1007A0000A128A110D200A128A11A50025082A02B0
:1007B000031DDC2B240829020318DF2BE02BE12B7F
:1007C000EB2B0130A3002308AC0705302C06031DDA
:1007D000EA2BEB2BC52B270803390319F02BF12B40
:1007E000FC2B2D30A3002B088400230883138000EA
:1007F0000130A3002308AB072C08A3002308A8009E
:100800003A2C0A30F8000030F9002808A30023072A
:10081000013E84000A128A110D200A128A11F0008A
:100820000A128A110D200A128A11F1002A08F30017
:100830002908F2000A128A11DD210A128A117108B0
:10084000FB007008FA000A128A1161210A128A114B
:100850007808303E83120313A4002408AC002C084F
:10086000A3002B0884002308831380000130A30019
:100870002308AB07FF30A3002308A807280A031D9D
:10088000422C432C012C0130A007FF3020078400AC
:100890000A128A110D200A128A11A3002308AC0043
:1008A0002C08031D542C552C7A2B2B088400831301
:1008B000800108008316031388018701F030860049
:1008C000831203138801870186010A128A11732299
:1008D0000A128A110A128A1593270A128A11043001
:1008E00083120313AD002D08F40001300A128A119F
:1008F00021220A128A11A730F5008030F6000A1270
:100900008A119B210A128A11033083120313AD004E
:100910002D08F40002300A128A1121220A128A11CB
:100920007030F5008030F6000A128A119B210A12FD
:100930008A110A128A1587270A128A110630831231
:100940000313AF001330AE00AD30AD00AD0BA62CDD
:10095000AE0BA62CAF0BA62CCD2F0A128A1583271F
:100960000A128A110A128A11D0220A128A118312DB
:100970000313AD00AE012D08C9002E08CA00643073
:1009800049064A040319C52CC62C4B2E2A304906A9
:100990004A040319CC2CCD2C4B2E233049064A0493
:1009A0000319D32CD42C4B2E47084804031DD92CF3
:1009B000DA2C2F2D0A128A15A0270A128A110B3061
:1009C00083120313AD002D08A0004A08A2004908B5
:1009D000A10031300A128A1172230A128A110A12F6
:1009E0008A1593270A128A11F401F40A01300A12B7
:1009F0008A1121220A128A113130F5000030F600E6
:100A00000A128A119B210A128A11033083120313DE
:100A1000AF008A30AE005530AD00AD0B0D2DAE0BE2
:100A20000D2DAF0B0D2D831203134A08F100490859
:100A3000F000E830F2000330F3000A128A15DB27D9
:100A40000A128A11710883120313CE007008CD00B8
:100A50000130C7070318C80A0030C807332E470300
:100A60004804031D342D352D8A2D0A128A15A0271E
:100A70000A128A111D3083120313AD002D08A00045
:100A80004A08A2004908A10031300A128A117223D3
:100A90000A128A110A128A1593270A128A11F4017E
:100AA000F40A01300A128A1121220A128A11313005
:100AB000F5000030F6000A128A119B210A128A11F1
:100AC000033083120313AF008A30AE005530AD00FF
:100AD000AD0B682DAE0B682DAF0B682D8312031381
:100AE0004A08F1004908F0006430F2000030F300D9
:100AF0000A128A15DB270A128A117108831203135E
:100B0000D0007008CF000130C7070318C80A0030B2
:100B1000C807332E023047064804031D902D912D3F
:100B2000E62D0A128A15A0270A128A112F30831285
:100B30000313AD002D08A0004A08A2004908A10037
:100B400031300A128A1172230A128A110A128A1586
:100B500093270A128A11F401F40A01300A128A1149
:100B600021220A128A113130F5000030F6000A12F3
:100B70008A119B210A128A11033083120313AF00DA
:100B80008A30AE005530AD00AD0BC42DAE0BC42D78
:100B9000AF0BC42D831203134A08F1004908F0007B
:100BA0000A30F2000030F3000A128A15DB270A121D
:100BB0008A11710883120313D2007008D10001302A
:100BC000C7070318C80A0030C807332E033047068A
:100BD0004804031DEC2DED2D332E0A128A15A02793
:100BE0000A128A11403083120313AD002D08A000B1
:100BF0004A08A2004908A10031300A128A11722362
:100C00000A128A110A128A1593270A128A11F4010C
:100C1000F40A01300A128A1121220A128A11313093
:100C2000F5000030F6000A128A119B210A128A117F
:100C3000033083120313AF008A30AE005530AD008D
:100C4000AD0B202EAE0B202EAF0B202E83120313E4
:100C50004A08D4004908D3000130C7070318C80A5E
:100C60000030C807332E51085307AD00520803184F
:100C7000520A5407AE004F082D07AF005008031862
:100C8000500A2E07B0004D082F07CB004E0803185E
:100C90004E0A3007CC00B2304B06043003194C0624
:100CA000031D532E542EA12E0130D5000030D60046
:100CB0000A128A157F270A128A110A128A11D6206F
:100CC0000A128A110A128A1593270A128A1104300D
:100CD00083120313AD002D08F40001300A128A11AB
:100CE00021220A128A11A730F5008030F6000A127C
:100CF0008A119B210A128A11053083120313AD0059
:100D00002D08F40002300A128A1121220A128A11D7
:100D1000BA30F5008030F6000A128A119B210A12BF
:100D20008A111A3083120313AF005E30AE006D30AB
:100D3000AD00AD0B992EAE0B992EAF0B992EA02EB8
:100D4000CD2F043047064804031DA72EA82ECD2F13
:100D50000A128A1593270A128A1106308312031386
:100D6000AD002D08F40001300A128A1121220A1266
:100D70008A118730F5008030F6000A128A119B2113
:100D80000A128A11053083120313AD002D08F400F6
:100D900002300A128A1121220A128A119230F500B9
:100DA0008030F6000A128A119B210A128A110B3038
:100DB00083120313AF002630AE005D30AD00AD0BE3
:100DC000DF2EAE0BDF2EAF0BDF2E013083120313AD
:100DD000D7070318D80A0030D807C701C801033065
:100DE00057065804031DF52EF62E382F0A128A15C1
:100DF00093270A128A11043083120313AD002D08C1
:100E0000F40001300A128A1121220A128A119D303F
:100E1000F5008030F6000A128A119B210A128A110D
:100E2000103083120313AF003930AE000D30AD0027
:100E3000AD0B182FAE0B182FAF0B182F03308312EA
:100E40000313D5000030D600033083120313AF0024
:100E50008A30AE005530AD00AD0B2C2FAE0B2C2FD1
:100E6000AF0B2C2F0A128A11F4200A128A11CD2FEF
:100E70000A128A1593270A128A1104308312031367
:100E8000AD002D08F40001300A128A1121220A1245
:100E90008A115130F5008030F6000A128A119B2128
:100EA0000A128A11083083120313AF009D30AE007E
:100EB0000530AD00AD0B5A2FAE0B5A2FAF0B5A2F8A
:100EC0000A128A1593270A128A1105308312031316
:100ED000AD002D08F40001300A128A1121220A12F5
:100EE0008A117C30F5008030F6000A128A119B21AD
:100EF0000A128A110A128A11D0220A128A11831246
:100F00000313AD00AE012D08C9002E08CA0003303E
:100F100083120313AF008A30AE005530AD00AD0B25
:100F20008F2FAE0B8F2FAF0B8F2F23308312031316
:100F300049064A04031D9D2F9E2F7A2F0A128A15F7
:100F400093270A128A11033083120313AD002D0870
:100F5000F40001300A128A1121220A128A11623029
:100F6000F5008030F6000A128A119B210A128A11BC
:100F7000043083120313AD002D08F40002300A126E
:100F80008A1121220A128A11B130F5008030F60050
:100F90000A128A119B210A128A118312031358081C
:100FA000803AFF0080307F02031DD82F03305702A4
:100FB0000318DB2FDC2FE42F83120313550856048C
:100FC0000319E32FE42FAD2C0A128A1100280A120C
:100FD0008A11D4200A128A11D9000A128A11D52046
:100FE0000A128A11DA0083134530840059300A123C
:100FF0008A158B270A128A1183010A128A115A2C28
:101EFE0083120313871008008312031307100800C0
:101F0E00831203138714080064008001840A0406F8
:101F1E000319003404068C2F00300A128A11DA20BD
:101F2E000A128A1501300A128A11DA200A128A154B
:101F3E0008008312031307158230F100DD30F00024
:101F4E00F00BA72FF10BA72FAC2F8312031307153E
:101F5E008230F100DD30F000F00BB32FF10BB32F18
:101F6E00B82F0800F000701CBD2FBE2FC22F831299
:101F7E0003130816C52F831203130812F01CC82F63
:101F8E00C92FCB2F8816CC2F8812701DCF2FD02F94
:101F9E00D22F0817D32F0813F01DD62FD72FD92FD6
:101FAE008817DA2F88130800F401F501701CE02F52
:101FBE00E12FE72F7208F4070318F50A7308F507E7
:101FCE0001300310F20DF30DFF3E031DE82F01301B
:101FDE000310F10CF00CFF3E031DEF2F700871047F
:101FEE00031DFA2FFB2FDD2F7508F1007408F0008A
:021FFE000800D9
:04400E00F22FFF3F4F
:00000001FF
